:1000000005C100000C944D630C9480630C94B363A1
:100010000C94E6630C9419640C944C640C947F6407
:100020000C94B26424C1000022C1000020C1000071
:100030001EC100001CC100001AC1000018C1000050
:1000400016C1000014C1000012C1000010C1000060
:100050000EC100000CC100000AC100000C94E56450
:1000600006C100000C94566F0C94866F00C100000E
:10007000FEC00000FCC00000FAC00000F8C0000094
:10008000F6C00000F4C00000F2C00000F0C00000A4
:100090000C94FD6F0C942D70EAC00000E8C00000C5
:1000A000E6C00000E4C00000E2C00000E0C00000C4
:1000B000DEC00000DCC00000DAC00000D8C00000D4
:1000C000D6C00000D4C000000C94B05D0C94A470A5
:1000D0000C94D470CCC000000C944B710C947B71C8
:1000E000C6C0000000002100240027002A002D00C7
:1000F0003000330001010000040107010A01000083
:100100002200250028002B002E00310034000201BF
:100110000000050108010B0100002000230026005B
:1001200029002C002F00320000010000030106010D
:10013000090105050505070508080808020202026D
:100140000A0A080804040404010101010101010173
:100150000303030303030303040707070C0C0C0C3E
:100160000C0C0C0C02020202060606060606060627
:100170000B0B0B0B0B0B0B0B0102102020080810B4
:100180002040102040800201020108040201010207
:1001900004081020408080402010080402018004E0
:1001A000020180402010080402010804020101023B
:1001B0000408102040800102040810204080000044
:1001C0000A0B02090C0D0E080703040100000000D1
:1001D000000000000000000000000000000000001F
:1001E00000000000000000000000121110000000DC
:1001F00000000000000000000000000000000000FF
:1002000000000000F16F98703F71E87111241FBE6B
:10021000CFEFD1E2DEBFCDBF00E00CBF13E0A0E026
:10022000B2E0E2E7F5EE00E00BBF02C007900D92EE
:10023000A63EB107D9F72BE0A6EEB3E001C01D92B0
:10024000A438B207E1F711E0C6E0D1E000E006C053
:1002500021970109802FFE010E948272C230D107CE
:1002600080E00807A9F70E947C5E0C94B772C8CEA4
:10027000EF92FF920F931F93CF93DF93CDB7DEB72B
:100280002C970FB6F894DEBF0FBECDBF69837A837B
:100290008B839C832D833E834F835887E986FA8620
:1002A0000B871C87898161E00E94726889819A812D
:1002B00001969C0189819A81AB81BC81A901BC0115
:1002C000CD01FDD020E030E0A90169857A858B85DC
:1002D0009C850E94BF611816F4F489819A818A5125
:1002E0009C4F21E0FC01208369857A858B859C8564
:1002F0000E944060DC01CB018C016D817E818F8189
:1003000098850E944060DC01CB019C0189819A8123
:10031000A801B90153D189819A8101962C960FB613
:10032000F894DEBF0FBECDBFDF91CF911F910F912B
:10033000FF90EF900895CF93DF9300D000D01F92ED
:10034000CDB7DEB79B838A834C835D836E837F83C7
:10035000CE010296FC0180818823A9F1CE0102968C
:10036000FC018081815089838981882F90E08A51A6
:100370009C4FFC0180818130D1F48C819D81AE81C4
:10038000BF81B0588C839D83AE83BF836C817D8198
:100390008E819F810E9440609B01AC018981882FE2
:1003A00090E0A0E0B0E0BC01CD01E7D00CC06C81D2
:1003B0007D818E819F810E943B60DC01CB01BC016D
:1003C00089810E94F866000027960FB6F894DEBF78
:1003D0000FBECDBFDF91CF910895CF93DF9300D0B3
:1003E000CDB7DEB79B838A83CE010296FC01808164
:1003F000882389F01982CE010296FC018081815008
:1004000089838981882F90E0A0E0B0E040E050E04F
:10041000BC01CD0154D000000F900F900F90DF91E0
:10042000CF910895CF93DF9300D000D000D0CDB707
:10043000DEB76E837F83888799871C821B821A822E
:1004400019821D828E819F81A885B985689412F8D2
:10045000B695A795979587951694D1F79C838B832E
:100460008E8187708D838B819C81845D9B4FFC0185
:1004700040818D81282F30E081E090E002C0880F1C
:10048000991F2A95E2F78423882F90E09A83898325
:1004900089819A81892B31F08E819F8101969A837F
:1004A000898302C01A82198289819A8129960FB69E
:1004B000F894DEBF0FBECDBFDF91CF910895CF93EB
:1004C000DF9300D000D000D01F92CDB7DEB76D8390
:1004D0007E838F8398875A8749871A8219821B8265
:1004E0001C828D819E81AF81B885689412F8B69583
:1004F000A795979587951694D1F79A8389838D81CF
:1005000087708B838B81282F30E081E090E002C0E0
:10051000880F991F2A95E2F78C8389859A85892B04
:1005200099F48C8180958C8389819A81845D9B4F1D
:10053000FC0190818C81292F282389819A81845DF7
:100540009B4FFC0120830FC089819A81845D9B4F62
:10055000FC0190818C81292F282B89819A81845DCF
:100560009B4FFC01208300002A960FB6F894DEBF53
:100570000FBECDBFDF91CF910895CF93DF9300D011
:1005800000D01F921F92CDB7DEB769837A838B8329
:100590009C832D833E834F8358878D819E81298143
:1005A000BC01822F0E94F866000028960FB6F894CE
:1005B000DEBF0FBECDBFDF91CF910895CF93DF9304
:1005C00000D000D000D0CDB7DEB79D838C837F8371
:1005D0006E83598748878C819D8182549E4F9A8370
:1005E000898389819A81FC0184918B838B81882FF7
:1005F00090E0092E000CAA0BBB0B0197A109B109D1
:1006000082319105A105B10508F051C2FC0188278E
:10061000E35FFC4F8F4F0C9482721F032903330357
:100620005D0387035705B103C703DD0307043104E6
:100630005B048504AF045705D90403052D0584E444
:1006400090E0FC01208184E490E02068FC0120839C
:100650002EC284E490E0FC01208184E490E02062DA
:10066000FC01208324C280E890E0FC018081282FD7
:100670002C7F80E890E02260FC01208381E890E0FC
:10068000FC018081982F907E8E81292F282B81E874
:1006900090E02061FC01208386E890E02885398580
:1006A000FC013183208380E890E0FC01208180E818
:1006B00090E02068FC012083FAC180E890E0FC0112
:1006C0008081282F2C7F80E890E02260FC0120832D
:1006D00081E890E0FC018081982F907E8E81292F07
:1006E000282B81E890E02061FC01208386E890E0DF
:1006F00028853985FC013183208380E890E0FC0166
:10070000208180E890E02062FC012083D0C180E855
:1007100090E0FC018081282F2C7F80E890E022600F
:10072000FC01208381E890E0FC018081982F907E7D
:100730008E81292F282B81E890E02061FC01208305
:1007400086E890E028853985FC013183208380E8A4
:1007500090E0FC01208180E890E02860FC0120838B
:10076000A6C180EB90E0FC01208180EB90E0206846
:10077000FC01208381EB90E0FC018081382F387FE1
:100780002E8181EB90E0232BFC01208390C180EB34
:1007900090E0FC01208180EB90E02062FC0120834E
:1007A00081EB90E0FC018081382F387F2E8181EB36
:1007B00090E0232BFC0120837AC180E990E0FC01CA
:1007C0008081282F2C7F80E990E02260FC0120832B
:1007D00081E990E0FC018081982F907E8E81292F05
:1007E000282B81E990E02061FC01208386E990E0DC
:1007F00028853985FC013183208380E990E0FC0164
:10080000208180E990E02068FC01208350C180E9CC
:1008100090E0FC018081282F2C7F80E990E022600D
:10082000FC01208381E990E0FC018081982F907E7B
:100830008E81292F282B81E990E02061FC01208303
:1008400086E990E028853985FC013183208380E9A1
:1008500090E0FC01208180E990E02062FC0120838F
:1008600026C180E990E0FC018081282F2C7F80E95F
:1008700090E02260FC01208381E990E0FC0180810E
:10088000982F907E8E81292F282B81E990E020617E
:10089000FC01208386E990E028853985FC013183BD
:1008A000208380E990E0FC01208180E990E02860CD
:1008B000FC012083FCC080EA90E0FC018081282FAD
:1008C0002C7F80EA90E02260FC01208381EA90E0A6
:1008D000FC018081982F907E8E81292F282B81EA20
:1008E00090E02061FC01208386EA90E0288539852C
:1008F000FC013183208380EA90E0FC01208180EAC2
:1009000090E02068FC012083D2C080EA90E0FC01E6
:100910008081282F2C7F80EA90E02260FC012083D8
:1009200081EA90E0FC018081982F907E8E81292FB2
:10093000282B81EA90E02061FC01208386EA90E088
:1009400028853985FC013183208380EA90E0FC0111
:10095000208180EA90E02062FC012083A8C080EA28
:1009600090E0FC018081282F2C7F80EA90E02260BB
:10097000FC01208381EA90E0FC018081982F907E29
:100980008E81292F282B81EA90E02061FC012083B1
:1009900086EA90E028853985FC013183208380EA4E
:1009A00090E0FC01208180EA90E02860FC01208337
:1009B0007EC080E291E0FC018081282F2C7F80E2C4
:1009C00091E02260FC01208381E291E0FC018081C2
:1009D000982F907E8E81292F282B81E291E0206133
:1009E000FC01208386E291E028853985FC01318372
:1009F000208380E291E0FC01208180E291E0206888
:100A0000FC01208354C080E291E0FC018081282F0A
:100A10002C7F80E291E02260FC01208381E291E062
:100A2000FC018081982F907E8E81292F282B81E2D6
:100A300091E02061FC01208386E291E028853985E0
:100A4000FC013183208380E291E0FC01208180E27F
:100A500091E02062FC0120832AC080E291E0FC0149
:100A60008081282F2C7F80E291E02260FC0120838E
:100A700081E291E0FC018081982F907E8E81292F68
:100A8000282B81E291E02061FC01208386E291E045
:100A900028853985FC013183208380E291E0FC01C7
:100AA000208180E291E02860FC01208300008C819D
:100AB00060E00E94116A000029960FB6F894DEBF2C
:100AC0000FBECDBFDF91CF910895CF93DF9300D0BC
:100AD00000D0CDB7DEB79C838B837E836D831A8273
:100AE000198289819A8126960FB6F894DEBF0FBECF
:100AF000CDBFDF91CF910895CF93DF9300D000D089
:100B00001F921F92CDB7DEB79E838D8378876F8348
:100B10001C821B828D819E81892B19F48FEF9FEFA0
:100B2000B6C08F819885892B19F48FEF9FEFAFC0E6
:100B30008091BD029091BE02A091BF02B091C0020F
:100B40008E3F9F4FAF4FBF4F81F48F819885FC013F
:100B500080819181A281B3818093BD029093BE0276
:100B6000A093BF02B093C0020FC08091BD029091CC
:100B7000BE02A091BF02B091C0022F813885F90159
:100B800080839183A283B3838091BD029091BE0242
:100B9000A091BF02B091C0028D819E81FC01828133
:100BA0009381FC0180819181A281B38180933D0575
:100BB00090933E05A0933F05B09340058D819E81A3
:100BC000FC0182819381FC0184819581A681B7819A
:100BD0008093410590934205A0934305B09344054B
:100BE0008D819E81FC0182819381FC0180859185AC
:100BF000A285B3858093450590934605A09347054C
:100C0000B09348058D819E81FC0182819381FC0116
:100C100084859585A685B7858093490590934A0577
:100C2000A0934B05B0934C0510924D0510924E05C4
:100C300010924F05109250050E94881E1A82198248
:100C40001A82198210C089819A81880F991F8B5C42
:100C50009B4F23EB3EE1FC013183208389819A8104
:100C600001969A83898389819A81029760F30E9411
:100C700081199C838B838B819C81892B31F481E04A
:100C800090E090933C0580933B058B819C81289656
:100C90000FB6F894DEBF0FBECDBFDF91CF910895A0
:100CA000CF93DF93CDB7DEB72C970FB6F894DEBFA6
:100CB0000FBECDBF69877A878B879C871A8219827E
:100CC0001B821C821D821E821F829091390581E049
:100CD000992309F080E0888782E090E090933C05BA
:100CE00080933B0589859A85AB85BC85892B8A2BAA
:100CF0008B2B59F480913905882339F480913A057A
:100D0000882319F481E090E002C080E090E08F83B6
:100D100031C06AE070E080E090E00E94B4658B81B1
:100D20009C81AD81BE81805F984DAF4FBF4F8B835B
:100D30009C83AD83BE8389859A85AB85BC858F3FB7
:100D40009F4FAF4FBF4F81F02B813C814D815E8122
:100D500089859A85AB85BC8582179307A407B5075B
:100D600018F481E090E002C080E090E08F8380E0A2
:100D70000E94D71980913905882339F480913A056A
:100D8000882319F48F81882321F283E090E09093E7
:100D90003C0580933B058F81882321F08CE99FEFF0
:100DA0009A8389838885882311F00E94AF1F8981E7
:100DB0009A812C960FB6F894DEBF0FBECDBFDF919F
:100DC000CF910895CF93DF93CDB7DEB761970FB67C
:100DD000F894DEBF0FBECDBF9D878C874E875F879F
:100DE000688B798B1A82198281E08B838C859D8533
:100DF0008F3F910521F018F08FEF9FEF63C0809136
:100E00003B0590913C05039731F080913B05909113
:100E10003C05019731F484E090E090933C05809389
:100E20003B058C859D85029708F58C859D85880FEF
:100E3000991F8B5C9B4FFC0180819181892BB1F0C4
:100E40000E94B1249D838C838C819D81029771F4D3
:100E50008C859D85880F991F8B5C9B4FFC012081A1
:100E600031818C859D85F90119958B838C859D85B4
:100E70009F838E832C853D858E859F85A889B98922
:100E8000A901BC01CD010E945E19DC01CB0188875C
:100E90009987AA87BB878B81882371F0888599857C
:100EA000AA85BB852E813F81AC01BD01C9010E948D
:100EB00081249A83898304C08E819F810E94F324B8
:100EC00089819A8161960FB6F894DEBF0FBECDBFBF
:100ED000DF91CF910895CF93DF931F921F92CDB7EB
:100EE000DEB71A82198280E00E94D7199A8389831B
:100EF00089819A810F900F90DF91CF910895CF93C0
:100F0000DF931F921F92CDB7DEB71A82198286E057
:100F100090E090933C0580933B050E94671A9A836A
:100F2000898344E050E060E070E085E394E00E9453
:100F3000B0720E94411F10923C0510923B058981BE
:100F40009A810F900F90DF91CF910895CF93DF9307
:100F5000CDB7DEB780913A05DF91CF910895CF9359
:100F6000DF93CDB7DEB780915105DF91CF91089522
:100F7000CF92DF92EF92FF920F931F93CF93DF9365
:100F8000CDB7DEB7A0970FB6F894DEBF0FBECDBFCA
:100F90006D8B7E8B8F8B988F5A8F498F3C8F2B8FC9
:100FA000ED8EFE8E0F8F18A3898D9A8DFC018081A6
:100FB0009181A281B3819C01AD016D897E898F8968
:100FC000988D0E94CF5F1816CCF119861A861B8661
:100FD0001C86898D9A8DFC0180819181A281B381CB
:100FE0009C01AD016D897E898F89988D0E94575F24
:100FF000DC01CB016C017D01898D9A8D0496FC0189
:1010000080819181A281B381298D3A8DF90120815E
:10101000318142815381BC01CD010E94575FDC01C7
:10102000CB019C01AD01C701B6010E94D35FDC0179
:10103000CB0189839A83AB83BC832DC18D8D9E8D1B
:10104000880F991F880F991F298D3A8D820F931F42
:10105000FC0180819181A281B3819C01AD016D89E8
:101060007E898F89988D0E94CF5F88230CF0B9C04C
:101070008D8D9E8DAF8DB8A1B695A79597958795C7
:101080008D839E83AF83B88719861A861B861C863C
:101090008D8D9E8DAF8DB8A18D879E87AF87B88BC4
:1010A0003EC08D819E81880F991F880F991F298DC1
:1010B0003A8D820F931FFC0180819181A281B381BF
:1010C0009C01AD016D897E898F89988D0E94CF5FCB
:1010D00088234CF48D819E81AF81B8858D879E8752
:1010E000AF87B88B08C08D819E81AF81B885898715
:1010F0009A87AB87BC872D853E854F855889898522
:101100009A85AB85BC85820F931FA41FB51FB6952A
:10111000A795979587958D839E83AF83B8872D85F7
:101120003E854F85588989859A85AB85BC8579012F
:101130008A01E81AF90A0A0B1B0BD801C7010297AA
:10114000A105B10508F0ADCF89859A85880F991F53
:10115000880F991F298D3A8D820F931FFC01808182
:101160009181A281B3819C01AD016D897E898F89B6
:10117000988D0E94575FDC01CB016C017D01898550
:101180009A850196880F991F880F991F298D3A8D8E
:10119000820F931FFC0180819181A281B3812985F7
:1011A0003A85220F331F220F331F498D5A8D240F8A
:1011B000351FF9012081318142815381BC01CD016C
:1011C0000E94575FDC01CB019C01AD01C701B60154
:1011D0000E94D35FDC01CB0189839A83AB83BC83FC
:1011E0005AC08D8D9E8DAF8DB8A10197A109B1090F
:1011F00089879A87AB87BC878D8D9E8D8150904C57
:10120000880F991F880F991F298D3A8D820F931F80
:10121000FC0180819181A281B3819C01AD016D8926
:101220007E898F89988D0E94575FDC01CB016C010C
:101230007D018D8D9E8D880F991F880F991F298D97
:101240003A8D820F931FFC0180819181A281B3812D
:101250002D8D3E8D2150304C220F331F220F331F16
:10126000498D5A8D240F351FF9012081318142812A
:101270005381BC01CD010E94575FDC01CB019C0171
:10128000AD01C701B6010E94D35FDC01CB018983A8
:101290009A83AB83BC8389859A85880F991F880FB1
:1012A000991F2B8D3C8D820F931FFC0180819181B2
:1012B000A281B381898B9A8BAB8BBC8B89859A85F4
:1012C0000196880F991F880F991F2B8D3C8D820FD7
:1012D000931FFC0180819181A281B38129893A8980
:1012E0004B895C89BC01CD010E94575FDC01CB01B9
:1012F00029813A814B815C81BC01CD010E94C3618F
:10130000DC01CB0129893A894B895C89BC01CD017B
:101310000E94585FDC01CB01BC01CD01A0960FB645
:10132000F894DEBF0FBECDBFDF91CF911F910F911B
:10133000FF90EF90DF90CF9008958F929F92AF92A1
:10134000BF92CF92DF92EF92FF920F931F93CF93B2
:10135000DF93CDB7DEB7AA970FB6F894DEBF0FBE06
:10136000CDBF9AA789A789A59AA5FC0184AD95ADA3
:10137000FC0180819181FC0180819181A281B381F6
:101380008B839C83AD83BE8389A59AA5FC0184854C
:101390009585A685B7858F839887A987BA8789A5FC
:1013A0009AA5FC0180899189FC0180819181A281AB
:1013B000B3818B879C87AD87BE8789A59AA5805C02
:1013C0009F4FFC0180819181FC0180819181988BEC
:1013D0008F8789A59AA5FC01848195819A8B898B39
:1013E00089899A89FC01808191819C8B8B8B898969
:1013F0009A89FC01828193819E8B8D8B89899A8940
:10140000FC0184819581988F8F8B89899A89FC0151
:10141000868197819A8F898F81E090E09C8F8B8F56
:1014200089A59AA5FC0182819381FC011182108219
:101430008B8D9C8DAC01440F551F440F551F2F857C
:1014400038898B899C89B9010E94A77289A59AA5C0
:10145000FC0182AD93AD2D893E89FC01318320834F
:101460000FD78091010390910203A0910303B091E3
:1014700004032B853C854D855E85BC01CD010E9412
:10148000C361DC01CB018D8F9E8FAF8FB8A31A8211
:10149000198247C089819A81880F991F880F991FE7
:1014A0002B893C89820F931FFC01C080D180E28090
:1014B000F38089819A81880F991F880F991F2D8940
:1014C0003E89820F931FFC0180819181A281B381AB
:1014D0002D8D3E8D4F8D58A1BC01CD010E94C36161
:1014E000DC01CB01AC01BD0189819A81880F991F74
:1014F000880F991F2F8538898901080F191F9A01B4
:10150000AB01C701B6010E94585FDC01CB01F801B5
:1015100080839183A283B38389819A8101969A8380
:10152000898329813A818B8D9C8D281739070CF48A
:10153000B1CF8091250390912603A0912703B0910C
:1015400028032B853C854D855E85BC01CD010E941D
:10155000C361DC01CB016C017D0189A59AA5FC0169
:1015600084AD95ADFC01008111812B813C814D81C1
:101570005E81C701B6010E94585FDC01CB01F80112
:1015800080839183A283B38389A59AA5FC0182AD50
:1015900093AD2F89388DFC01318320830AD370D617
:1015A0001A8219822FC089819A810396880F991F08
:1015B000880F991F8F5F9C4FFC0180819181A281D0
:1015C000B3812B853C854D855E85BC01CD010E9494
:1015D000C361DC01CB0129813A81220F331F220F25
:1015E000331FAE014F5F5F4F240F351F245E3F4F07
:1015F000F90180839183A283B38389819A810196C3
:101600009A83898389819A8102976CF21A8219825E
:101610006AC089819A81880F991F880F991F2B8929
:101620003C89820F931FFC01C080D180E280F3804F
:1016300089819A81880F991F880F991F2D893E896A
:10164000820F931FFC0180819181A281B3812D8D36
:101650003E8D4F8D58A1BC01CD010E94C361DC01BC
:10166000CB014C015D0189819A81880F991F880FF8
:10167000991F2F89388D820F931FFC0180819181E2
:10168000A281B38129A13AA14BA15CA1BC01CD01EA
:101690000E94C361DC01CB019C01AD01C501B40115
:1016A0000E94585FDC01CB01AC01BD0189819A81A8
:1016B000880F991F880F991F2F8538898901080F76
:1016C000191F9A01AB01C701B6010E94585FDC01E6
:1016D000CB01F80180839183A283B38389819A81AE
:1016E00001969A83898329813A818B8D9C8D281755
:1016F00039070CF48ECF8091290390912A03A09191
:101700002B03B0912C032B853C854D855E85BC0158
:10171000CD010E94C361DC01CB016C017D0189A573
:101720009AA5FC0184AD95ADFC01008111812B814E
:101730003C814D815E81C701B6010E94585FDC018A
:10174000CB01F80180839183A283B38389A59AA5F5
:10175000FC0182AD93AD298D3A8DFC01318320834C
:1017600028D28ED51A8219822FC089819A81069635
:10177000880F991F880F991F8F5F9C4FFC018081F4
:101780009181A281B3812B853C854D855E85BC010D
:10179000CD010E94C361DC01CB0129813A81220F76
:1017A000331F220F331FAE014F5F5F4F240F351FD2
:1017B000245E3F4FF90180839183A283B3838981A3
:1017C0009A8101969A83898389819A8103976CF221
:1017D0001A8219828DC089819A81880F991F880F7A
:1017E000991F2B893C89820F931FFC01C080D180F7
:1017F000E280F38089819A81880F991F880F991F51
:101800002D893E89820F931FFC0180819181A281E5
:10181000B3812D8D3E8D4F8D58A1BC01CD010E940D
:10182000C361DC01CB014C015D0189819A81880F84
:10183000991F880F991F2F89388D820F931FFC01E4
:1018400080819181A281B38129A13AA14BA15CA1A0
:10185000BC01CD010E94C361DC01CB019C01AD0143
:10186000C501B4010E94585FDC01CB014C015D0150
:1018700089819A81880F991F880F991F298D3A8D28
:10188000820F931FFC0180819181A281B3812DA1E0
:101890003EA14FA158A5BC01CD010E94C361DC014E
:1018A000CB019C01AD01C501B4010E94585FDC0170
:1018B000CB01AC01BD0189819A81880F991F880FE6
:1018C000991F2F8538898901080F191F9A01AB01CB
:1018D000C701B6010E94585FDC01CB01F80180838B
:1018E0009183A283B38389819A8101969A838983A4
:1018F00029813A818B8D9C8D281739070CF46BCF89
:1019000089A59AA5FC0184AD95ADFC0120813181AA
:101910008F819885A985BA85F90180839183A283F7
:10192000B38389A59AA5FC018281938121E030E0EF
:10193000FC01318320830000AA960FB6F894DEBF25
:101940000FBECDBFDF91CF911F910F91FF90EF9010
:10195000DF90CF90BF90AF909F908F900895CF92DF
:10196000DF92EF92FF921F93CF93DF93CDB7DEB755
:1019700060970FB6F894DEBF0FBECDBF69877A8738
:101980008B879C872D873E874F87588B89859A85C3
:10199000AB85BC85BC01CD010E9447168823A1F40C
:1019A0008D859E85AF85B889BC01CD010E94471603
:1019B000882351F489859A85AB85BC85BC01CD010E
:1019C0000E940F16882369F08091760B9091770B17
:1019D000A091780BB091790B8D839E83AF83B887EC
:1019E000D4C08D859E85AF85B889BC01CD010E948C
:1019F0000F16882349F089859A85AB85BC858D8330
:101A00009E83AF83B887C1C020E030E0A9016D8517
:101A10007E858F8598890E94CF5F88237CF48D8591
:101A20009E85AF85B889BC01CD010E94BC5FDC01F9
:101A3000CB0189839A83AB83BC830EC08D859E8541
:101A4000AF85B889BC01CD010E94A960DC01CB0142
:101A500089839A83AB83BC8320E030E0A9016D8544
:101A60007E858F8598890E94CF5F882309F47BC08B
:101A700029813A814B815C816D857E858F8598892E
:101A80000E94CF5F882309F46EC02D853E854F8567
:101A9000588969857A858B859C850E94D35FDC0196
:101AA000CB01BF7789839A83AB83BC8320E030E08E
:101AB00040E05FE369817A818B819C810E94585F5D
:101AC000DC01CB01BC01CD010E94A960DC01CB018E
:101AD0009C01AD0169817A818B819C810E94575F55
:101AE000DC01CB016C017D01E894F7F820E030E0E7
:101AF00040E054E369817A818B819C810E94C361BB
:101B0000DC01CB0111E09C01AD01C701B6010E94CF
:101B1000BF6118160CF010E081E08127882381F066
:101B200020E030E0A90169857A858B859C850E943B
:101B3000C361DC01CB018D839E83AF83B88725C051
:101B40002D853E854F85588989859A85AB85BC85CD
:101B5000BC01CD010E94C360DC01CB018D839E835B
:101B6000AF83B88712C02D853E854F8558898985FA
:101B70009A85AB85BC85BC01CD010E94C360DC01A8
:101B8000CB018D839E83AF83B8878D819E81AF818A
:101B9000B885BC01CD0160960FB6F894DEBF0FBECC
:101BA000CDBFDF91CF911F91FF90EF90DF90CF904D
:101BB00008958F929F92AF92BF92CF92DF92EF9251
:101BC000FF920F931F93CF93DF9300D000D000D0EC
:101BD0001F921F92CDB7DEB789E394E08D519F4FDE
:101BE000FC0180819181019709F0A1C089E394E013
:101BF00089539F4FFC0180819181A281B3818F3FE6
:101C00009F4FAF4FBF4FA9F589E394E085539F4F96
:101C1000FC0180819181A281B3810196A11DB11D3A
:101C2000BC01CD010E946C607B018C0189E394E0D2
:101C300081539F4FFC0180819181A281B3819C01DE
:101C4000AD01C801B7010E94C361DC01CB0109E30A
:101C500014E020E030E040E85FE4BC01CD010E94E8
:101C6000C361DC01CB01F801808B918BA28BB38B1C
:101C70005EC089E394E089539F4FFC01808191818C
:101C8000A281B3810196A11DB11DBC01CD010E94AD
:101C90006C607B018C0189E394E081539F4FFC01D0
:101CA00080819181A281B3819C01AD01C801B701FE
:101CB0000E94C361DC01CB016C017D0189E394E0EA
:101CC00085539F4FFC0180819181A281B381BC012A
:101CD000CD010E946C604B015C0189E394E081536B
:101CE0009F4FFC0180819181A281B3819C01AD0154
:101CF000C501B4010E94C361DC01CB0120E030E0EA
:101D000040E85FE4BC01CD010E94C361DC01CB016E
:101D100009E314E09C01AD01C701B6010E94585FC0
:101D2000DC01CB01F801808B918BA28BB38B89E313
:101D300094E08D519F4FFC0180819181892BD9F4D2
:101D400089E394E0805C9F4FFC0180819181FC01DC
:101D50008081918129E334E02A513F4FF9012081AC
:101D60003181FC0180819181A281B381F90180835D
:101D70009183A283B38389E394E08D519F4FFC014B
:101D80008081918121E0019709F020E02D838D81F0
:101D9000882309F47AC0AA24A394B12C0F2EFCEB5B
:101DA000CF2EF2E0DF2EF02DEE24E394F12C0BEB9E
:101DB00012E021E030E04AEB52E06BE57BE08AE4A0
:101DC0009BE00E94EF5920914A0B30914B0B809180
:101DD000670B9091680BA901481B590BCA01092E8A
:101DE000000CAA0BBB0BBC01CD010E946E607B01F5
:101DF0008C018091500290915102A0915202B091B9
:101E000053029C01AD01C801B7010E94D35FDC0100
:101E1000CB017C018D018091540290915502A091DB
:101E20005602B09157029C01AD01C801B7010E9452
:101E3000C361DC01CB017C018D018091580290913E
:101E40005902A0915A02B0915B029C01AD01C801F8
:101E5000B7010E94C361DC01CB018093320B9093E8
:101E6000330BA093340BB093350B8091320B9091D0
:101E7000330BA091340BB091350B8093360B9093BC
:101E8000370BA093380BB093390B20915C02309143
:101E90005D0240915E0250915F0289E394E08A51B5
:101EA0009F4FFC0180819181FC0180819181A28101
:101EB000B381BC01CD0153DDDC01CB0113E1E12E87
:101EC000F12C00E010E020E032E040E652E0BC01FE
:101ED000CD014ED8DC01CB0180933A0B90933B0BA4
:101EE000A0933C0BB0933D0B65E070E080E090E088
:101EF0000E94120290935A0B8093590B80913A0BD7
:101F000090913B0BA0913C0BB0913D0B20E030E059
:101F10004FE753E4BC01CD010E94CF5F18166CF06F
:101F200080913A0B90913B0BA0913C0BB0913D0BF3
:101F300089839A83AB83BC8308C080E090E0AFE7DD
:101F4000B3E489839A83AB83BC8311E020E030E063
:101F5000A90169817A818B819C810E94BF6188235C
:101F60000CF410E081E08127882321F019821A8285
:101F70001B821C822091590B30915A0B89819A81C6
:101F8000AB81BC81AC01BD01C9010E949B018D8167
:101F90008823C1F080913A0B90913B0BA0913C0BB0
:101FA000B0913D0B80933E0B90933F0BA093400B61
:101FB000B093410B80914A0B90914B0B90934D0B3A
:101FC00080934C0B8091B4029091B502A091B6021F
:101FD000B091B70220914F0B3091500B4091510BB3
:101FE0005091520BBC01CD010E94C361DC01CB01B9
:101FF0008093420B9093430BA093440BB093450BFB
:102000008D81882381F08091420B9091430BA091A8
:10201000440BB091450B8093460B9093470BA093D4
:10202000480BB093490B89E394E08D519F4FFC011D
:1020300080819181019709F084C089E394E08D51FA
:102040009F4FFC0180819181019701F5AA24A394FF
:10205000B12C0F2EFCEBCF2EF2E0DF2EF02DEE2474
:10206000E394F12C0BEB12E021E030E04AEB52E07C
:102070006BE57BE08AE49BE00E944A5A80914A0B20
:1020800090914B0B9093680B8093670B89E394E0DE
:102090008D519F4FFC0180819181019709F051C0C2
:1020A0001F821E8289E394E08D529F4FFC01808144
:1020B0009181A281B381BC01CD010E946C606B0152
:1020C0007C0189E394E089529F4FFC0180819181DA
:1020D000A281B381BC01CD010E946C60DC01CB0107
:1020E00020E030E040E85FE4BC01CD010E94C36124
:1020F000DC01CB019C01AD01C701B6010E94585F14
:10210000DC01CB0120E030E0A901BC01CD010E943F
:10211000585FDC01CB01BC01CD010E944060DC01B5
:10212000CB0188879987AA87BB8788859985AA85E7
:10213000BB85AC01BD0181E090E00E94E2069F8377
:102140008E8389E394E08D519F4FFC0180819181C2
:10215000019709F081C089E394E00496EED829E361
:1021600034E0C90189539F4FFC0180819181A28194
:10217000B3810196A11DB11DA90149535F4FFA0119
:1021800080839183A283B383C90189539F4FFC014C
:1021900080819181A281B381892B8A2B8B2BA1F421
:1021A00029E334E0C90185539F4FFC01808191816F
:1021B000A281B3810196A11DB11D25533F4FF901A5
:1021C00080839183A283B38389E394E029E334E09D
:1021D0002A513F4FF90120813181FC018089918989
:1021E000A289B389F90180839183A283B38329E310
:1021F00034E0C9018D529F4FFC0180819181A28101
:10220000B3810196A11DB11D2D523F4FF90180836D
:102210009183A283B38389E394E08D529F4FFC01A5
:1022200080819181A281B381892B8A2B8B2BA1F490
:1022300029E334E0C90189529F4FFC0180819181DB
:10224000A281B3810196A11DB11D29523F4FF90111
:1022500080839183A283B38300002B960FB6F894FA
:10226000DEBF0FBECDBFDF91CF911F910F91FF90C9
:10227000EF90DF90CF90BF90AF909F908F90089598
:10228000CF93DF931F921F92CDB7DEB789E394E01F
:1022900080579F4FFC01808191819A83898380912F
:1022A000B0029091B102A091B202B091B30220911C
:1022B0004F0B3091500B4091510B5091520BBC0180
:1022C000CD010E94C361DC01CB0129813A81F90172
:1022D00080839183A283B38389819A81FC01808169
:1022E0009181A281B3812091320B3091330B4091C7
:1022F000340B5091350BBC01CD010E94585FDC01BD
:10230000CB0129813A81F90180839183A283B38330
:1023100000000F900F90DF91CF910895EF92FF9200
:102320000F931F93CF93DF9300D000D01F921F9283
:10233000CDB7DEB784E090E022D489E394E040EFAB
:1023400050E060E070E00E94B07229E334E089E37D
:1023500094E02D513F4FFC013783268329E334E07D
:1023600089E394E02A513F4F805C9F4FFC01318309
:10237000208329E334E089E394E021533F4FFC01BB
:10238000358B248B29E334E089E394E020573F4FD9
:10239000FC0137AF26AF29E334E089E394E0265708
:1023A0003F4F8C5B9F4FFC013183208329E334E056
:1023B00089E394E021543F4F8E5B9F4FFC013183B2
:1023C000208329E334E089E394E02F533F4F8A5B75
:1023D0009F4FFC013183208329E334E089E394E0BB
:1023E00024573F4F885B9F4FFC013183208329E3B3
:1023F00034E089E394E022573F4F865B9F4FFC0116
:102400003183208329E334E089E394E02E563F4F63
:102410008A579F4FFC013183208329E334E089E30D
:1024200094E086599F4FFC013183208389E394E037
:1024300029E334E0FC013583248389E394E0FC0143
:102440008681978121E030E0FC013183208389E39C
:1024500094E08F579F4FFC01108289E394E08857E6
:102460009F4FFC01108229E334E089E394E0295670
:102470003F4F89559F4FFC013183208329E334E08E
:1024800089E394E025563F4F87559F4FFC013183E8
:10249000208329E334E089E394E021563F4F8555BA
:1024A0009F4FFC013183208329E334E089E394E0EA
:1024B0002D553F4F83559F4FFC013183208389E386
:1024C00094E086579F4F2FE43BE0FC01318320834B
:1024D00089E394E08E569F4F2EE43BE0FC0131836C
:1024E000208389E394E085529F4FFC011082118282
:1024F0001282138229E334E089E394E029553F4FA7
:10250000FC013187208789E394E02AEF32E0FC0167
:102510003387228729E334E089E394E028513F4F51
:102520008A519F4FFC013183208389E394E09C0111
:1025300021523F4F80E090E0AAEFB3E4F90180839D
:102540009183A283B38389E394E09C0121533F4F9D
:102550008AE097EDA3EABCE3F90180839183A2832B
:10256000B38389E394E09C0121553F4F8CE692E3CD
:10257000ABEBB9E1F90180839183A283B38389E353
:1025800094E09C012D543F4F84E59BECA8E4B4E813
:10259000F90180839183A283B38389E394E09C0152
:1025A00029543F4F8BE393EBA9E1B9E5F90180830F
:1025B0009183A283B38389E394E09C0125543F4F28
:1025C00082E898EBA1E0BFE0F90180839183A283C8
:1025D000B38389E394E029E235E0FC01338322836D
:1025E00085E395E090932A058093290581E393E0A4
:1025F000909336058093350581E393E090933805F9
:102600008093370529E334E089E394E0FC0182817B
:1026100093812B533F4FFC013583248329E334E01E
:1026200089E394E0FC018281938121553F4FFC01B5
:102630003383228389E394E0FC012281338188EA99
:1026400091E6A0E0B0E0F90180879187A287B38787
:102650004CE150E060E070E082E39BE00E94B072E9
:1026600044E050E060E070E08FE49BE00E94B072D4
:1026700041E050E060E070E08EE49BE00E94B072C8
:1026800047E150E060E070E083E59BE00E94B072BB
:102690001092530B81E08093690B81E090E0A0E001
:1026A000B0E08093540B9093550BA093560BB093CE
:1026B000570BE12CF12C870120E030E0A90165E007
:1026C00070E080E090E00E94380190935A0B809374
:1026D000590B81E08093580B1D821E821F82188641
:1026E00019821A821B821C8217C08D819E81AF8144
:1026F000B88580935B0B90935C0BA0935D0BB093BC
:102700005E0B89819A81AB81BC810196A11DB11DAF
:1027100089839A83AB83BC8389819A81AB81BC8195
:10272000181619061A061B0604F78091B802909134
:10273000B9029093680B8093670B10924F0B109225
:10274000500B1092510B1092520B000028960FB6AE
:10275000F894DEBF0FBECDBFDF91CF911F910F91D7
:10276000FF90EF900895CF93DF93CDB7DEB78091C0
:10277000530B8823B1F581E08093530B8091540B68
:102780009091550BA091560BB091570B0197A10555
:10279000B10539F58091580B882319F165E070E097
:1027A00080E090E00E94120290935A0B8093590BA4
:1027B0008091590B90915A0B40E050E0BA010E9471
:1027C0009B0165E070E080E090E00E94120290932F
:1027D0005A0B8093590B8091590B90915A0B0E9480
:1027E000ED010000DF91CF910895CF93DF93CDB736
:1027F000DEB76A970FB6F894DEBF0FBECDBF80E29A
:1028000090E09E838D8319821A821B821C828D81A7
:102810009E81809741F458D0DC01CB0189839A8353
:10282000AB83BC8342C081E090E09A878987CE0168
:102830000996FC01908181E0913009F480E0882FB5
:1028400090E098878F838F819885009719F0019782
:10285000B9F02BC080E090E0A0EFBFE78F87988BA6
:10286000A98BBA8B1B861C861D861E868B859C8534
:10287000AD85BE8589839A83AB83BC83000015C078
:1028800080E090E0A0EFBFE78B8B9C8BAD8BBE8B85
:102890001F8A188E198E1A8E8B899C89AD89BE89E4
:1028A00089839A83AB83BC83000089819A81AB8141
:1028B000BC81BC01CD016A960FB6F894DEBF0FBE95
:1028C000CDBFDF91CF910895CF93DF9300D01F92BA
:1028D000CDB7DEB780E090E0A0E8BFE789839A83B8
:1028E000AB83BC8389819A81AB81BC81BC01CD0162
:1028F0000F900F900F900F90DF91CF910895CF938D
:10290000DF93CDB7DEB76A970FB6F894DEBF0FBE80
:10291000CDBF80E290E09E838D8319821A821B8254
:102920001C828D819E81809741F458D0DC01CB01BF
:1029300089839A83AB83BC8342C081E090E09A870D
:102940008987CE010996FC01908181E0913009F4DC
:1029500080E0882F90E098878F838F8198850097FB
:1029600019F00197B9F02BC080E090E0A0EFBFEF25
:102970008F87988BA98BBA8B1B861C861D861E861B
:102980008B859C85AD85BE8589839A83AB83BC830B
:10299000000015C080E090E0A0EFBFEF8B8B9C8B18
:1029A000AD8BBE8B1F8A188E198E1A8E8B899C89CF
:1029B000AD89BE8989839A83AB83BC8300008981FA
:1029C0009A81AB81BC81BC01CD016A960FB6F894A7
:1029D000DEBF0FBECDBFDF91CF910895CF93DF93C0
:1029E00000D01F92CDB7DEB780E090E0A0E8BFEF47
:1029F00089839A83AB83BC8389819A81AB81BC81B3
:102A0000BC01CD010F900F900F900F90DF91CF91EF
:102A10000895CF93DF93CDB7DEB76A970FB6F894DA
:102A2000DEBF0FBECDBF80E290E09E838D83198212
:102A30001A821B821C828D819E81809741F45BD01B
:102A4000DC01CB0189839A83AB83BC8345C081E0E1
:102A500090E09A878987CE010996FC01908181E0F8
:102A6000913009F480E0882F90E098878F838F81E0
:102A70009885009719F00197B9F02EC080E090E09A
:102A8000A8EFBFEF8F87988BA98BBA8B1B861C860C
:102A90001D861E868B859C85AD85BE8589839A8320
:102AA000AB83BC83000018C08FEF9FEFAFEFBFE791
:102AB0008B8B9C8BAD8BBE8B8FEF9FEFDC018F8B55
:102AC000988FA98FBA8F8B899C89AD89BE8989839C
:102AD0009A83AB83BC83000089819A81AB81BC81DE
:102AE000BC01CD016A960FB6F894DEBF0FBECDBF14
:102AF000DF91CF910895CF93DF9300D000D01F9244
:102B00001F92CDB7DEB71B821C821D821E8281E020
:102B100090E098878F83CE010796FC01908181E039
:102B2000913009F480E0882F90E09A83898389812D
:102B30009A81009719F0019751F012C080E090E05F
:102B4000A0ECBFEF8B839C83AD83BE8309C08FEF66
:102B50009FEFAFEFBFE78B839C83AD83BE83000005
:102B60008B819C81AD81BE81BC01CD0128960FB6C1
:102B7000F894DEBF0FBECDBFDF91CF910895CF9304
:102B8000DF931F921F92CDB7DEB79A83898341DF0F
:102B9000DC01CB018093760B9093770BA093780B9D
:102BA000B093790BA8DFDC01CB0180936A0B909383
:102BB0006B0BA0936C0BB0936D0B17DEDC01CB019C
:102BC0008093720B9093730BA093740BB093750B5F
:102BD0007BDEDC01CB0180936E0B90936F0BA09397
:102BE000700BB093710B8BDEDC01CB0180937A0B01
:102BF00090937B0BA0937C0BB0937D0BEFDEDC01FD
:102C0000CB0180937E0B90937F0BA093800BB093AE
:102C1000810B00000F900F90DF91CF910895CF931B
:102C2000DF9300D01F92CDB7DEB769837A838B83A1
:102C30009C838091720B9091730BA091740BB09157
:102C4000750B9C01AD0169817A818B819C810E9409
:102C5000CF5F882391F080917A0B90917B0BA091AC
:102C60007C0BB0917D0B9C01AD0169817A818B81D8
:102C70009C810E94CF5F882311F481E001C080E035
:102C80000F900F900F900F90DF91CF910895CF93F9
:102C9000DF93CDB7DEB72F970FB6F894DEBF0FBE28
:102CA000CDBF6C877D878E879F87198280E290E0F9
:102CB0009B838A838A819B81809749F48C859D853B
:102CC000AE85BF85BC01CD0138D089832CC08C85F1
:102CD0009D85AE85BF858C839D83AE83BF838885AC
:102CE0009985AA85BB8588279927A07FBF770097FC
:102CF000A04FBF47A9F488859985AA85BB85AF7089
:102D0000BB27892B8A2B8B2B41F48C819D81AE8133
:102D1000BF81892B8A2B8B2B19F081E090E002C0B8
:102D200080E090E0898389812F960FB6F894DEBF0A
:102D30000FBECDBFDF91CF910895CF93DF9300D029
:102D400000D01F921F92CDB7DEB76D837E838F8335
:102D500098878D819E81AF81B88589839A83AB8363
:102D6000BC8389819A81AB81BC8188279927A0780F
:102D7000BF770097A048BF4769F489819A81AB81EA
:102D8000BC81AF77BB27892B8A2B8B2B19F081E075
:102D900090E002C080E090E028960FB6F894DEBF85
:102DA0000FBECDBFDF91CF9108950F931F93CF93A7
:102DB000DF9300D000D000D01F92CDB7DEB79A834A
:102DC00089834B835C836D837E830F831887298778
:102DD0003A8729813A818B819C81AD81BE81F9013D
:102DE00080839183A283B38389819A819C012C5F24
:102DF0003F4F8F819885A985BA85F901808391839A
:102E0000A283B38300002A960FB6F894DEBF0FBEEC
:102E1000CDBFDF91CF911F910F910895EF92FF9257
:102E20000F931F93CF93DF93CDB7DEB76A970FB69B
:102E3000F894DEBF0FBECDBF6D8B7E8B8F8B988FCE
:102E40005A8F498F19821A821B821C82F894898DAD
:102E50009A8D019709F00BC18091660590916705E5
:102E6000A0916805B09169052D893E894F89588DDB
:102E7000281739074A075B07C8F0809166059091CB
:102E80006705A0916805B09169052D893E894F8934
:102E9000588D79018A01E81AF90A0A0B1B0BD8012F
:102EA000C7018D839E83AF83B88718C08091660564
:102EB00090916705A0916805B09169052D893E89BB
:102EC0004F89588D79018A01E81AF90A0A0B1B0B00
:102ED000D801C7018D839E83AF83B88780916A052F
:102EE00090916B05A0916C05B0916D052D813E818F
:102EF0004F815885820F931FA41FB51F898B9A8B12
:102F0000AB8BBC8B80916A0590916B05A0916C0591
:102F1000B0916D0529893A894B895C892817390751
:102F20004A075B0798F480916E0590916F05A09118
:102F30007005B09171050196A11DB11D80936E05BC
:102F400090936F05A0937005B093710589899A8954
:102F5000AB89BC8980936A0590936B05A0936C053F
:102F6000B0936D0520916E0530916F05409170050D
:102F70005091710580916A0590916B05A0916C0547
:102F8000B0916D0589019A01AC01BD018EE595E016
:102F90000CDF8D899E89AF89B88D809366059093EB
:102FA0006705A0936805B09369052D813E814F8127
:102FB000588580E29EE4DC010E948A729B01AC018C
:102FC0008091720590917305A0917405B09175057B
:102FD000820F931FA41FB51F8093720590937305F2
:102FE000A0937405B0937505809172059091730557
:102FF000A0917405B091750589839A83AB83BC83D6
:103000008091BD029091BE02A091BF02B091C0021A
:103010008F3F9F4FAF4FBF4F09F43CC18091BD021E
:103020009091BE02A091BF02B091C0028E3F9F4F0F
:10303000AF4FBF4F09F42EC120916A0530916B0547
:1030400040916C0550916D058091BD029091BE023A
:10305000A091BF02B091C00261E0281739074A076A
:103060005B0708F460E0862F8093510513C1198631
:103070001A861B861C861D861E861F86188A8091CE
:10308000C1029091C202A091C302B091C4028F3FCD
:103090009F4FAF4FBF4FE1F08091C1029091C202AC
:1030A000A091C302B091C4029C01AD012F5F3F4FBC
:1030B0004F4F5F4F8D899E89AF89B88DBC01CD017F
:1030C0000E946072DC01CB018D8B9E8BAF8BB88F21
:1030D0008091660590916705A0916805B09169059A
:1030E0002D893E894F89588D281739074A075B0774
:1030F00008F447C08091660590916705A091680526
:10310000B09169052D893E894F89588D79018A01D1
:10311000E81AF90A0A0B1B0BD801C70189879A879D
:10312000AB87BC87209166053091670540916805A3
:10313000509169058D899E89AF89B88D79018A0181
:10314000E81AF90A0A0B1B0BD801C7018D879E8765
:10315000AF87B88B2D853E854F85588989859A859F
:10316000AB85BC8582179307A407B50728F019869D
:103170001A861B861C864BC01D861E861F86188AD3
:1031800046C08091660590916705A0916805B09151
:1031900069052D893E894F89588D79018A01E81A80
:1031A000F90A0A0B1B0BD801C70189879A87AB87DD
:1031B000BC87209166053091670540916805509164
:1031C00069058D899E89AF89B88D79018A01E81AD0
:1031D000F90A0A0B1B0BD801C7018D879E87AF87A1
:1031E000B88B2D853E854F85588989859A85AB8515
:1031F000BC8582179307A407B50728F019861A869D
:103200001B861C8604C01D861E861F86188A89851B
:103210009A85AB85BC85892B8A2B8B2BE1F0298580
:103220003A854B855C8580E29EE4DC010E948A72CF
:103230009B01AC018091720590917305A09174057A
:10324000B0917505820F931FA41FB51F89839A83C0
:10325000AB83BC831FC0E0907205F09073050091B2
:103260007405109175052D853E854F85588980E23E
:103270009EE4DC010E948A72DC01CB01A801970167
:10328000281B390B4A0B5B0BDA01C90189839A832E
:10329000AB83BC83789489819A81AB81BC81BC016A
:1032A000CD016A960FB6F894DEBF0FBECDBFDF9199
:1032B000CF911F910F91FF90EF900895CF93DF93DF
:1032C00000D000D0CDB7DEB769837A838B839C832F
:1032D0005E834D832D813E8189819A81AB81BC8142
:1032E000A901BC01CD019ADDDC01CB01BC01CD01FE
:1032F00026960FB6F894DEBF0FBECDBFDF91CF91FB
:103300000895CF93DF9300D000D0CDB7DEB71C82F5
:103310001B821E821D821A821982109252051092FF
:1033200053051092540510925505109256051092AF
:103330005705109258051092590510925A0510928F
:103340005B0510925C0510925D059E012B5F3F4F5F
:10335000CE010396B90131D62D813E818B819C81AE
:10336000B9010E94D1449A83898389819A81892BEA
:1033700019F089819A8112C09E012B5F3F4FCE01C7
:103380000396B9013ED62D813E818B819C81B90186
:103390000E9455239A83898389819A8126960FB644
:1033A000F894DEBF0FBECDBFDF91CF910895CF93CC
:1033B000DF9300D01F921F92CDB7DEB78D831A82A4
:1033C00019821B8260E070E0CB010E94B4651C8210
:1033D0000E949B469A83898389819A81892B39F03F
:1033E00089819A81029619F081E08B830DC08C81CE
:1033F000882321F489819A81029619F081E090E076
:1034000002C080E090E08C838B818823E1F40E94ED
:1034100088239A83898389819A81892B39F08981CC
:103420009A81029619F081E08B830DC08C818823EC
:1034300021F489819A81029619F081E090E002C01E
:1034400080E090E08C838B818823E1F40E94264603
:103450009A83898389819A81892B39F089819A811C
:10346000029619F081E08B830DC08C81882321F4B2
:1034700089819A81029619F081E090E002C080E093
:1034800090E08C838D81882391F060E070E0CB0127
:103490000E94B4658B81882319F48C81882319F4E8
:1034A00081E090E002C080E090E08B8302C081E088
:1034B0008B838B81882309F48ACF89819A810F902D
:1034C0000F900F900F900F90DF91CF910895CF93B1
:1034D000DF9300D000D01F921F92CDB7DEB71886C1
:1034E0001F8280915105882329F060E070E0CB01B4
:1034F0000E94D4240E94B1249E838D8319821A8253
:103500001B821C8218C06AE070E080E090E00E949C
:10351000B46589819A81AB81BC81805F984DAF4F42
:10352000BF4F89839A83AB83BC8381E040DF0E94D5
:10353000B1249E838D8389819A81AB81BC81811561
:103540009748A349B34020F48D819E81892BD9F6F9
:103550000E94BC2498878F830E94364898878F8367
:103560001092390510923A0510923D0510923E05D1
:1035700010923F05109240051092410510924205AD
:10358000109243051092440510924505109246058D
:1035900010924705109248051092490510924A056D
:1035A00010924B0510924C0510924D0510924E054D
:1035B00010924F05109250058EEF9FEFAFEFBFEFC7
:1035C0008093BD029093BE02A093BF02B093C0024D
:1035D0001092510548E050E060E070E08EE595E023
:1035E0000E94B072109266051092670510926805ED
:1035F0001092690510926A0510926B0510926C0585
:1036000010926D0510926E0510926F051092700564
:103610001092710510927205109273051092740544
:10362000109275058F81988528960FB6F894DEBFA5
:103630000FBECDBFDF91CF910895CF93DF9300D020
:1036400000D01F921F92CDB7DEB780917805909180
:103650007905A0917A05B0917B059A838983898148
:103660009A81892B09F431C180917C05882369F402
:103670008091780590917905A0917A05B0917B05AC
:10368000892B8A2B8B2B09F420C180919005909176
:103690009105029709F019C180919A05882309F0D4
:1036A00014C189819A81FC0180819181A281B381B9
:1036B0008B839C83AD83BE8380919605882309F418
:1036C000F0C08091890590918A05892B31F0809115
:1036D000890590918A05029719F481E090E002C073
:1036E00080E090E08F838091890590918A05019711
:1036F00031F08091890590918A05029719F481E053
:1037000090E002C080E090E088878F81882309F4F0
:1037100062C080917D0590917E05A0917F05B0915A
:1037200080059C01AD016B817C818D819E810E9411
:10373000BF618823B4F08091920590919305A09188
:103740009405B091950520917D0530917E054091BD
:103750007F0550918005BC01CD010E94CF5F882379
:1037600044F180917D0590917E05A0917F05B091F7
:1037700080059C01AD016B817C818D819E810E94C1
:10378000BF61181644F58091920590919305A09120
:103790009405B091950520917D0530917E0540916D
:1037A0007F0550918005BC01CD010E94CF5F882329
:1037B00091F48091850590918605A0918705B0913F
:1037C0008805892B8A2B8B2B19F481E0809399052E
:1037D00081E080939A058885882309F462C08091EE
:1037E0007D0590917E05A0917F05B09180059C019B
:1037F000AD016B817C818D819E810E94CF5F88238A
:10380000B4F48091920590919305A0919405B091A4
:10381000950520917D0530917E0540917F05509161
:103820008005BC01CD010E94BF61882344F58091D1
:103830007D0590917E05A0917F05B09180059C014A
:10384000AD016B817C818D819E810E94CF5F882339
:1038500041F58091920590919305A0919405B091C6
:10386000950520917D0530917E0540917F05509111
:103870008005BC01CD010E94BF61181694F48091AF
:10388000850590918605A0918705B0918805892BC3
:103890008A2B8B2B19F481E08093990581E080932A
:1038A0009A0590919A0581E0992309F080E0809330
:1038B00096058B819C81AD81BE818093920590930A
:1038C0009305A0939405B0939505000028960FB634
:1038D000F894DEBF0FBECDBFDF91CF910895CF9397
:1038E000DF931F92CDB7DEB719828091900590913A
:1038F0009105892BC9F410928B0510929A0580913D
:10390000C902882371F182E090E090939105809341
:1039100090051092C90280918C0590918D05892B9C
:1039200001F581E089831DC01092C90280918B0549
:10393000882349F0109299051092910510929005F4
:1039400010928B050EC080918C0590918D05892B6E
:1039500019F481E0898305C080919A0589831092CA
:103960009A05809190059091910582309105F9F02A
:103970008330910530F4009761F0019709F44CC150
:10398000AEC18330910509F4EEC0049709F46AC012
:10399000A6C18091C902882309F4ACC182E090E0FD
:1039A00090939105809390051092C902A3C18981DB
:1039B000882309F4A1C18091850590918605A09185
:1039C0008705B0918805181619061A061B06ECF42F
:1039D00080918C0590918D050197B9F480918505B2
:1039E00090918605A0918705B091880580939B05ED
:1039F00090939C05A0939D05B0939E0583E090E075
:103A0000909391058093900577C18091C502909124
:103A1000C602A091C702B091C802892B8A2B8B2BBA
:103A2000D1F081E0809399058091C5029091C60202
:103A3000A091C702B091C80280939B0590939C050A
:103A4000A0939D05B0939E0584E090E0909391052E
:103A50008093900551C11092990510929105109292
:103A600090054AC180919B0590919C05A0919D0570
:103A7000B0919E05892B8A2B8B2B99F080919B0509
:103A800090919C05A0919D05B0919E050197A1097B
:103A9000B10980939B0590939C05A0939D05B093DD
:103AA0009E0580919B0590919C05A0919D05B091EC
:103AB0009E05892B8A2B8B2B09F020C180918E05C6
:103AC00090918F05019739F4109299051092910504
:103AD0001092900513C18091810590918205A0916B
:103AE0008305B0918405892B8A2B8B2BC9F010920A
:103AF00099058091810590918205A0918305B091EF
:103B0000840580939B0590939C05A0939D05B0939D
:103B10009E0581E090E09093910580939005EEC022
:103B200089818823B9F08091C5029091C602A09145
:103B3000C702B091C80280939B0590939C05A09307
:103B40009D05B0939E0584E090E09093910580934D
:103B50009005D4C01092990582E090E09093910571
:103B600080939005CBC080919B0590919C05A0917E
:103B70009D05B0919E05892B8A2B8B2B99F0809106
:103B80009B0590919C05A0919D05B0919E05019784
:103B9000A109B10980939B0590939C05A0939D0575
:103BA000B0939E0580919B0590919C05A0919D05E9
:103BB000B0919E05892B8A2B8B2B09F0A1C0809197
:103BC000C5029091C602A091C702B091C802892B8C
:103BD0008A2B8B2BD1F081E0809399058091C502CF
:103BE0009091C602A091C702B091C80280939B0534
:103BF00090939C05A0939D05B0939E0584E090E072
:103C000090939105809390057BC010929905109236
:103C100091051092900574C080919B0590919C0530
:103C2000A0919D05B0919E05892B8A2B8B2B99F035
:103C300080919B0590919C05A0919D05B0919E055A
:103C40000197A109B10980939B0590939C05A093CE
:103C50009D05B0939E0580919B0590919C05A09138
:103C60009D05B0919E05892B8A2B8B2B09F04AC0AC
:103C70008981882369F18091C5029091C602A09143
:103C8000C702B091C802892B8A2B8B2BD1F081E01F
:103C9000809399058091C5029091C602A091C702B8
:103CA000B091C80280939B0590939C05A0939D05BD
:103CB000B0939E0584E090E09093910580939005E9
:103CC00021C01092990510929105109290051AC08A
:103CD00082E090E0909391058093900513C010923C
:103CE000990510929A0510928B05109291051092E9
:103CF000900509C0000007C0000005C0000003C017
:103D0000000001C0000000000F90DF91CF910895E6
:103D1000CF93DF93CDB7DEB7109292051092930543
:103D200010929405109295051092960580918C053D
:103D300090918D0590939805809397051092990521
:103D400010929A0510929B0510929C0510929D0569
:103D500010929E05109291051092900580E090E0DF
:103D6000DF91CF910895CF93DF9300D0CDB7DEB729
:103D70009B838A838A819B81019709F05BC0209194
:103D80008C0530918D05809197059091980541E0C3
:103D90002817390709F440E0498380918C059091F8
:103DA0008D0590939805809397058981882381F0EC
:103DB0001092990510929A0510929B0510929C05FD
:103DC00010929D0510929E051092910510929005FB
:103DD00080918C0590918D05019761F580919005FA
:103DE00090919105892B21F48091C902882391F447
:103DF00080919005909191050197E1F480919B0548
:103E000090919C05A0919D05B0919E050197A105FB
:103E1000B10581F410929B0510929C0510929D05AE
:103E200010929E051092C90282E090E09093910555
:103E30008093900580918C0590918D05019751F4A8
:103E400080917605909177052A813B812817390763
:103E500009F4F3DB8A819B81019721F440DD109204
:103E6000A00507C08091A005882319F080919F05C7
:103E700002C0809199050F900F900F90DF91CF9124
:103E80000895CF93DF93CDB7DEB7109292051092CD
:103E90009305109294051092950510929605109234
:103EA0009105109290051092980510929705109226
:103EB0007705109276051092990510929A05109246
:103EC0009B0510929C0510929D0510929E051092E4
:103ED0009F051092A0051092780510927905109216
:103EE0007A0510927B0510927C0510927D05109248
:103EF0007E0510927F051092800588EE93E0A0E089
:103F0000B0E08093C5029093C602A093C702B0931D
:103F1000C8021092810510928205109283051092BA
:103F200084051092850510928605109287051092DF
:103F3000880510928A051092890581E08093C90254
:103F400010928B0510928D0510928C0510928F05A2
:103F500010928E0580E090E0DF91CF910895CF938D
:103F6000DF93CDB7DEB780918C0590918D05892BBD
:103F700001F58091C902882359F080918B0588232F
:103F800039F481E080939F0581E08093A00511C002
:103F900080918B05882351F08091C902882331F4E8
:103FA00010929F0581E08093A00503C01092A005A8
:103FB00000C00000DF91CF910895CF93DF9300D030
:103FC0001F92CDB7DEB79A8389837C836B83898107
:103FD0009A81892B71F08B819C81892B51F0898189
:103FE0009A81FC01118210828B819C81FC011182DB
:103FF000108200000F900F900F900F90DF91CF91E3
:104000000895CF93DF9300D01F92CDB7DEB79A8388
:1040100089837C836B8389819A81892B71F08B8161
:104020009C81892B51F089819A81FC011182108237
:104030008B819C81FC011182108200000F900F90F7
:104040000F900F90DF91CF910895CF93DF93CDB76D
:10405000DEB72C970FB6F894DEBF0FBECDBF9E83A0
:104060008D8378876F835A8749873C872B871A828D
:1040700019820E942B489C838B838D819E81FC0139
:10408000808191810E94084B8B859C8560E070E067
:104090000E9494479C018F819885FC013183208385
:1040A0000E947A479C0189859A85FC01318320838F
:1040B0008F819885FC0180819181892BE1F08F812E
:1040C0009885FC01208131818B819C81B9010E94FE
:1040D0005E4F9C018D819E81FC01318320838D8107
:1040E0009E81FC0180819181892B49F486EF9FEFAD
:1040F0009A83898304C088EF9FEF9A83898389819B
:104100009A812C960FB6F894DEBF0FBECDBFDF911B
:10411000CF910895CF93DF9300D000D0CDB7DEB715
:104120009A8389837C836B835E834D8389819A81A3
:10413000892B21F089819A810E94084B8D819E8173
:10414000FC011182108280E090E026960FB6F89470
:10415000DEBF0FBECDBFDF91CF910895CF93DF9328
:1041600000D000D0CDB7DEB79A8389837C836B8380
:104170005E834D838D819E8122E030E0FC0131839E
:1041800020838FEF9FEF26960FB6F894DEBF0FBE09
:10419000CDBFDF91CF910895CF93DF9300D01F92D1
:1041A000CDB7DEB78B836C8385E090E09A838983FB
:1041B0008B81813F18F01A82198229C08B81843E3D
:1041C00040F08B81813F28F481E090E09A838983DD
:1041D0001EC08B81833D18F08B81833E48F08B811C
:1041E000803C59F48C81882341F08C81833028F401
:1041F00082E090E09A8389830AC08B81883C38F002
:104200008B81833D20F483E090E09A8389838981C8
:104210009A810F900F900F900F90DF91CF9108959A
:10422000CF93DF93CDB7DEB767970FB6F894DEBFB5
:104230000FBECDBF998B888B7B8B6A8B5D8B4C8B34
:104240003F8B2E8B888999899C838B838B819C8162
:10425000FC0180818D8319828D81803C49F48A899B
:104260009B89029728F08B819C81FC018181898345
:104270008091A2059091A305892B09F455C069810D
:104280008D818ADF9B878A871A828A859B8505971D
:10429000C1F18A859B85880F991F88559A4FFC012B
:1042A000808191819D878C871F861E868C859D8548
:1042B000892B39F18D81882F90E02C853D85F9017E
:1042C00019959F878E8721E08E859F85892B09F41C
:1042D00020E02A838A818823A1F08E859F85FC01B6
:1042E000228133818C899D89FC01318320838E85D5
:1042F0009F85FC01248135818E899F89FC01318352
:1043000020838A81882309F053C08C899D892EEAF5
:1043100030E2FC01318320838E899F8921E432E2DF
:10432000FC013183208344C08D818F3FA9F58091AA
:10433000A8059091A9059F838E838C899D89FC0196
:10434000118210828E899F89FC01118210828E81D8
:104350009F81892B69F12E813F818FEF90E0F901D8
:1043600019959987888788859985892B09F188858A
:104370009985FC01228133818C899D89FC013183DF
:10438000208388859985FC01248135818E899F89C8
:10439000FC01318320830CC08C899D892AE830E29E
:1043A000FC01318320838E899F89FC011182108258
:1043B000000067960FB6F894DEBF0FBECDBFDF9149
:1043C000CF910895CF93DF93CDB7DEB78091A2054B
:1043D0009091A305DF91CF910895CF93DF931F9222
:1043E0001F92CDB7DEB79A83898389819A81909392
:1043F000A3058093A20500000F900F90DF91CF914D
:104400000895CF93DF93CDB7DEB78091A405DF91F8
:10441000CF910895CF93DF931F92CDB7DEB78983F5
:104420009091A4058981892B8093A40500000F90A9
:10443000DF91CF910895CF93DF931F92CDB7DEB771
:104440008983898180959091A40589238093A4050F
:1044500000000F90DF91CF910895CF93DF93CDB7F8
:10446000DEB78091A505DF91CF910895CF93DF93BB
:10447000CDB7DEB78091A6059091A705DF91CF91CA
:104480000895CF93DF9300D000D000D01F92CDB716
:10449000DEB79E838D8378876F835A8749878D81A6
:1044A0009E81892B51F48F8198859C838B838B818E
:1044B0009C812FEFFC01208394C08F8198859A8383
:1044C000898389819A812EEFFC0120838D819E81D1
:1044D000092E000CAA0BBB0B4096A11DB11D80310B
:1044E0009105A105B10508F076C0FC018827E458C4
:1044F000FD4D8F4F0C948272E522DF22D922D32208
:10450000CD22C722BB22C122B522AF22A922A422DA
:1045100092228C2298229E2289819A8120E3FC019A
:1045200021835FC089819A8129E2FC01218359C0DE
:1045300089819A8122E2FC01218353C089819A8179
:1045400020E2FC0121834DC089819A81FC01118206
:1045500048C089819A8123E2FC01218342C089817C
:104560009A8121E2FC0121833CC089819A8121E169
:10457000FC01218336C089819A8127E2FC012183D5
:1045800030C089819A812AE2FC0121832AC0898175
:104590009A8120E1FC01218324C089819A8124E24F
:1045A000FC0121831EC089819A8128E2FC012183BC
:1045B00018C089819A8126E2FC01218312C0898179
:1045C0009A8121E3FC0121830CC089819A8123E334
:1045D000FC01218306C089819A8120E2FC012183AC
:1045E00000C000002A960FB6F894DEBF0FBECDBF04
:1045F000DF91CF910895CF93DF9300D000D000D00A
:104600001F92CDB7DEB79E838D8378876F835A87DD
:1046100049871A8219828F819885892BD9F11C824A
:104620001B821C821B822BC02B813C81C901880FFD
:10463000991F820F931F880F991F9C018F81988566
:10464000820F931FFC01808191812D813E8128176B
:10465000390781F42B813C81C901880F991F820F92
:10466000931F880F991F9C018F819885820F931F3C
:104670009A8389838B819C8101969C838B832B8178
:104680003C8189859A852817390720F489819A8188
:10469000892B51F289819A812A960FB6F894DEBF50
:1046A0000FBECDBFDF91CF910895CF93DF9300D0A0
:1046B0001F92CDB7DEB79A8389837C836B83809109
:1046C000A105882319F084EF9FEF1BC049D554D56D
:1046D0009093A9058093A8050E94833A0E949B3A73
:1046E0009093AD058093AC050E946C430E94774384
:1046F0009093AB058093AA0581E08093A10580E0AB
:1047000090E00F900F900F900F90DF91CF91089550
:10471000EF92FF920F931F93CF93DF93CDB7DEB746
:1047200064970FB6F894DEBF0FBECDBF1A82198210
:104730001C821B8218861F821A8619861C861B867D
:104740001E861D86188A1F861E821D821A8A198A55
:104750001C8A1B8A8091A105882319F487EF9FEF9B
:10476000C3C0BE01635F7F4F9E01255F3F4FAE0117
:10477000475F5F4FCE0107968B01BC0180E090E060
:104780000E94D8469A83898389819A81892B49F02E
:1047900089819A81049629F089819A81059609F088
:1047A00096C08F819885892B59F02B853C858D8506
:1047B0009E85280F391F89859A858217930728F4CB
:1047C00088EF9FEF9A83898385C02F8138858B85F9
:1047D0009C85820F931F9E838D836D857E859E01B0
:1047E0002D5E3F4FAE014F5E5F4F8D819E8118DD84
:1047F00089899A89892B29F484EF9FEF9A83898389
:1048000069C029893A896B857C858F819885AE013D
:10481000415F5F4FF90119959C838B838B899C893C
:10482000892B09F451C08F859889892B09F44CC0D4
:104830001A8219822D853E858F8598892817390718
:1048400068F42F853889AE01455F5F4FBE01675F11
:104850007F4FCE010796F9DB9A8389832D853E85AC
:104860008D819E81A90160E070E00E94B072898113
:104870009A81892B49F52F8138858B859C85820FFC
:10488000931F9E838D832B893C894F8558896D8129
:104890007E818B819C81F90119956F8578894B8583
:1048A0005C8529853A858F8198857B018A01AC01D9
:1048B0006FEF7FEF81E090E00E9481459A838983CA
:1048C00089819A81892B29F489819A810DC0000000
:1048D00001C000008F819885892B21F08F819885F8
:1048E0000E94084B89819A8164960FB6F894DEBFC6
:1048F0000FBECDBFDF91CF911F910F91FF90EF9031
:104900000895CF93DF9300D000D01F921F92CDB7B0
:10491000DEB79C838B834D835E836F8378871A8297
:1049200019828091A105882319F487EF9FEF10C0A9
:104930008D819E81AF81B885EB81FC8120E0AC0147
:10494000BD01CF010E94B73D9A83898389819A81F5
:1049500028960FB6F894DEBF0FBECDBFDF91CF9182
:104960000895CF93DF93CDB7DEB78091A2059091E4
:10497000A305DF91CF910895CF93DF93CDB7DEB735
:104980000E9496430E94E84116D448E050E060E05F
:1049900070E088EA95E00E94B0721092A10580E074
:1049A00090E0DF91CF910895CF93DF9300D000D0B6
:1049B000CDB7DEB76B837C838D839E838B819C8197
:1049C000AD81BE81BC01CD010E94753E9A83898371
:1049D00089819A8126960FB6F894DEBF0FBECDBFAF
:1049E000DF91CF910895CF93DF9300D01F921F9254
:1049F000CDB7DEB79D838C8381E089838C819D81D7
:104A0000298140E050E0BA010E94B73D9B838A8330
:104A10008A819B810F900F900F900F900F90DF91E4
:104A2000CF910895CF93DF9300D01F921F92CDB7FF
:104A3000DEB78D8381E090E09A8389830E94EB4703
:104A40009C838B838D81282F30E08B819C814981D1
:104A50005A81BA010E944C72CB0141E028173907F4
:104A600008F040E0842F0F900F900F900F900F9060
:104A7000DF91CF910895CF93DF9300D01F921F92C3
:104A8000CDB7DEB79C838B836D83A1D39A83898353
:104A90008091B505482F50E029813A818B819C8116
:104AA000B9010E94A77200000F900F900F900F9015
:104AB0000F90DF91CF910895CF93DF93CDB7DEB7FD
:104AC0002D970FB6F894DEBF0FBECDBF99878887AC
:104AD0007B876A875D874C871A821982288539858A
:104AE0008A859B85820F931F9C838B838B819C81FE
:104AF0009E838D831F820E9493408F838F818823A2
:104B000051F48C859D8522E030E0FC0131832083C7
:104B100085EF9FEF2DC08D819E81FC0181818823CF
:104B200031F08D819E81FC018181813019F481E019
:104B300090E002C080E090E08F838F81882351F461
:104B40008C859D8522E030E0FC01318320838EEF4F
:104B50009FEF0EC081E090E040DC1A8219828C85C4
:104B60009D8528E030E0FC013183208389819A8192
:104B70002D960FB6F894DEBF0FBECDBFDF91CF915B
:104B80000895CF93DF9300D000D01F921F92CDB72E
:104B9000DEB79C838B837E836D8358874F838B81A5
:104BA0009C81892BA9F58D819E819A838983898136
:104BB0009A8148E050E060E070E00E94B072898124
:104BC0009A812FEFFC01208325E089819A81FC01E5
:104BD000218320E089819A81FC0122830E94EB4796
:104BE000282F89819A81FC0123830E94E2479C013E
:104BF00089819A81FC013583248389819A8121E00E
:104C0000FC01268389819A8121E0FC01278308C069
:104C10004F8158852D813E818B819C81B90131DC8A
:104C2000000028960FB6F894DEBF0FBECDBFDF910F
:104C3000CF910895CF93DF9300D000D01F92CDB7CE
:104C4000DEB79B838A837D836C835F834E8381E0A1
:104C500089830E94934089838981882351F48E81BE
:104C60009F8122E030E0FC013183208385EF9FEFBC
:104C70000CC080E090E0B1DB8E819F8121E030E0CC
:104C8000FC013183208380E090E027960FB6F894F2
:104C9000DEBF0FBECDBFDF91CF910895CF93DF93DD
:104CA00000D000D0CDB7DEB79A8389837C836B8335
:104CB0005E834D838D819E8126E030E0FC0131834F
:104CC000208380E090E026960FB6F894DEBF0FBEFA
:104CD000CDBFDF91CF910895CF93DF9300D000D067
:104CE0001F921F92CDB7DEB79C838B837E836D832B
:104CF00058874F838D819E819A83898389819A8188
:104D000046E050E060E070E00E94B07289819A81D4
:104D10002FEFFC01208375DB282F89819A81FC010C
:104D200021839BDB282F89819A81FC0122839EDBD2
:104D30009C0189819A81FC01358324830000289697
:104D40000FB6F894DEBF0FBECDBFDF91CF910895AF
:104D5000CF93DF9300D000D01F92CDB7DEB79B83F7
:104D60008A837D836C835F834E8319820E947640A1
:104D700089838981882321F00E9410480E948740FE
:104D80008E819F8122E030E0FC01318320838BEF14
:104D90009FEF27960FB6F894DEBF0FBECDBFDF9111
:104DA000CF910895CF93DF93CDB7DEB72D970FB690
:104DB000F894DEBF0FBECDBF998788877B876A874F
:104DC0005D874C871A821982288539858A859B855B
:104DD000820F931F9C838B838B819C819E838D8309
:104DE0001F828D819E81FC0123818D819E81FC012A
:104DF00084819581A681B781422FBC01CD01F6D176
:104E00008F838F81882351F48C859D8522E030E04B
:104E1000FC013183208384EF9FEF09C08C859D8541
:104E200021E030E0FC013183208389819A812D9635
:104E30000FB6F894DEBF0FBECDBFDF91CF910895BE
:104E4000CF93DF93CDB7DEB72F970FB6F894DEBFC1
:104E50000FBECDBF9B878A877D876C875F874E8714
:104E60001A8219822A853B858C859D85820F931F26
:104E70009C838B838B819C819E838D831F82A7D192
:104E8000998788878D819E81FC018181CBDD8F830D
:104E90008F81882351F48E859F8522E030E0FC01CC
:104EA000318320838EEF9FEF22C088859985892BDF
:104EB00051F48E859F8522E030E0FC013183208310
:104EC00084EF9FEF14C08D819E81FC0181818093CE
:104ED000B5058091B505882F90E09C012F5F3F4F6D
:104EE0008E859F85FC013183208389819A812F964D
:104EF0000FB6F894DEBF0FBECDBFDF91CF910895FE
:104F0000CF93DF93CDB7DEB72D970FB6F894DEBF02
:104F10000FBECDBF998788877B876A875D874C875F
:104F200088859985892B91F552D19A8389838A85C1
:104F30009B859C838B838B819C8141E050E060E06A
:104F400070E00E94B0728B819C812FEFFC01208366
:104F500089819A81892B11F18091B505882F90E084
:104F600001962C853D8528173907C1F48A859B85D4
:104F700001969E838D831F828D819E816F817BDD53
:104F80008091B50564D11092B50508C04C855D854A
:104F90002A853B8588859985B90173DA00002D96AD
:104FA0000FB6F894DEBF0FBECDBFDF91CF9108954D
:104FB000CF93DF93CDB7DEB72D970FB6F894DEBF52
:104FC0000FBECDBF998788877B876A875D874C87AF
:104FD0001A821982288539858A859B85820F931FBD
:104FE0009C838B838B819C819E838D831F828D818B
:104FF0009E81FC01818116DD8F838F81882351F48E
:105000008C859D8522E030E0FC01318320838EEF8A
:105010009FEF31C08D819E81FC0123818D819E8116
:10502000FC0184819581A681B781422FBC01CD010D
:10503000DDD08F838F81882351F48C859D8522E07C
:1050400030E0FC013183208384EF9FEF14C08D8119
:105050009E81FC0181818093B5058091B505882FE3
:1050600090E09C012F5F3F4F8C859D85FC01318333
:10507000208389819A812D960FB6F894DEBF0FBEEA
:10508000CDBFDF91CF910895CF93DF93CDB7DEB73A
:105090002D970FB6F894DEBF0FBECDBF99878887D6
:1050A0007B876A875D874C8788859985892B91F5F1
:1050B0008ED09A8389838A859B859C838B838B8101
:1050C0009C8141E050E060E070E00E94B0728B8112
:1050D0009C812FEFFC01208389819A81892B11F11A
:1050E0008091B505882F90E001962C853D85281785
:1050F0003907C1F48A859B8501969E838D831F8223
:105100008D819E816F81B7DC8091B505A0D0109212
:10511000B50508C04C855D852A853B8588859985C0
:10512000B901AFD900002D960FB6F894DEBF0FBEBF
:10513000CDBFDF91CF910895CF93DF931F921F9240
:10514000CDB7DEB79A83898389819A8147E050E0A1
:1051500062E373E050DA0F900F90DF91CF910895E2
:10516000CF93DF93CDB7DEB78CE998E210D093D020
:105170000000DF91CF910895CF93DF93CDB7DEB7D5
:105180008091B6059091B705DF91CF910895CF93A7
:10519000DF931F921F92CDB7DEB79A8389838981EF
:1051A0009A819093B7058093B60500000F900F90F9
:1051B000DF91CF910895CF93DF93CDB7DEB773D052
:1051C00080E090E0E4DF0000DF91CF910895CF937D
:1051D000DF93CDB7DEB78091B0059091B105A09176
:1051E000B205B091B305DF91CF910895CF93DF93CE
:1051F00000D01F921F92CDB7DEB769837A838B836D
:105200009C834D838D81882351F489819A81AB8160
:10521000BC81892B8A2B8B2B11F480E010C08981F3
:105220009A81AB81BC818093B0059093B105A09326
:10523000B205B093B3058D818093B40581E00F90E2
:105240000F900F900F900F90DF91CF910895CF9313
:10525000DF931F92CDB7DEB789832091B0053091DF
:10526000B1054091B2055091B3058981882F90E036
:10527000A0E0B0E0820F931FA41FB51F8093B0057C
:105280009093B105A093B205B093B30500000F90C1
:10529000DF91CF910895CF93DF93CDB7DEB70000B4
:1052A000DF91CF910895CF93DF93CDB7DEB70000A4
:1052B000DF91CF910895CF93DF9300D0CDB7DEB7C4
:1052C0009B838A831982F8948091BE059091BF05D3
:1052D00021E0892B09F020E029838981882309F4C2
:1052E000789489810F900F900F90DF91CF9108955E
:1052F000CF93DF931F921F92CDB7DEB79A83898336
:10530000789400000F900F90DF91CF910895CF9384
:10531000DF931F921F92CDB7DEB79A838983F894EB
:105320008091BE059091BF0501969093BF05809333
:10533000BE05789400000F900F90DF91CF910895F3
:10534000CF93DF931F921F92CDB7DEB79A838983E5
:10535000F8948091BE059091BF0501979093BF0589
:105360008093BE05789400000F900F90DF91CF914D
:105370000895CF93DF931F921F92CDB7DEB79A8324
:1053800089832091B8053091B90549815A8163E13B
:10539000649FC001659F900D1124820F931FFC0133
:1053A00083819481029799F02091B8053091B905D5
:1053B00049815A8163E1649FC001659F900D11246A
:1053C000820F931FFC0183819481039719F481E07C
:1053D00090E002C080E090E00F900F90DF91CF91BD
:1053E0000895CF93DF9300D0CDB7DEB719821B822B
:1053F0001A821B821A8209C08A819B81BADF898343
:105400008A819B8101969B838A838091BA059091C2
:10541000BB052A813B812817390718F48981882325
:1054200059F381E09981992309F080E00F900F9062
:105430000F90DF91CF910895CF93DF9300D01F920B
:105440001F92CDB7DEB79B838A836C834D83809197
:10545000B8059091B905892B09F477C08091BA05F8
:105460009091BB052A813B812817390708F06DC050
:105470002091B8053091B9054A815B8163E1649F51
:10548000C001659F900D1124820F931FFC01808144
:105490009181892B09F459C02091B8053091B90543
:1054A0004A815B8163E1649FC001659F900D112477
:1054B000820F931FFC0182819C81981708F045C0E0
:1054C0002091B8053091B9054A815B8163E1649F01
:1054D000C001659F900D1124820F931FFC01208154
:1054E00031818C81482F50E06DE0649FC001659F41
:1054F000900D1124820F931FFC0180819181892BD3
:1055000021F12091B8053091B9054A815B8163E1B1
:10551000649FC001659F900D1124820F931FFC01B1
:10552000208131818C81482F50E06DE0649FC00163
:10553000659F900D1124820F931FFC0182819D8134
:10554000981718F481E090E002C080E090E0898331
:1055500089810F900F900F900F900F90DF91CF9156
:105560000895CF93DF9300D000D000D0CDB7DEB741
:105570008C836D832E833F834887598719828D8161
:10558000882F90E09B838A838C818F3F41F48A81AE
:105590009B818F3F910509F010F481E08983898117
:1055A00029960FB6F894DEBF0FBECDBFDF91CF9125
:1055B0000895CF93DF931F92CDB7DEB7898389819A
:1055C000882F90E08F7E21E0892B09F020E0822F48
:1055D0000F90DF91CF910895CF93DF931F921F9289
:1055E000CDB7DEB78A8319828A81882331F08A8118
:1055F000813019F08A81823011F481E089838981B8
:105600000F900F90DF91CF910895CF93DF931F926A
:105610001F92CDB7DEB78A8319828A81882331F041
:105620008A81813019F08A81823011F481E0898386
:1056300089810F900F90DF91CF910895CF93DF93E1
:10564000CDB7DEB781E0DF91CF910895CF93DF939F
:1056500000D0CDB7DEB79B838A832091B805309107
:10566000B9054A815B8163E1649FC001659F900D2C
:105670001124820F931FFC0183858230D9F420917D
:10568000B8053091B9054A815B8163E1649FC0012F
:10569000659F900D1124820F931FFC012581368197
:1056A0008091D2029091D3022817390719F081E036
:1056B00090E002C080E090E089838981882339F0FE
:1056C0008A819B81892B19F481E090E002C080E0FF
:1056D00090E0898389810F900F900F90DF91CF9197
:1056E0000895CF93DF9300D000D01F92CDB7DEB7DF
:1056F0009E838D836F838D819E81FC01208131810A
:105700008F81482F50E06DE0649FC001659F900D30
:105710001124820F931F9C838B838B819C81FC01BE
:10572000438154818D819E81FC0125853685429F70
:10573000C001439F900D529F900D112401969A83B2
:1057400089838F81882379F48D819E81FC018781F3
:10575000882F90E080719927892B29F089819A817F
:1057600004969A83898389819A8127960FB6F89443
:10577000DEBF0FBECDBFDF91CF910895CF93DF93F2
:1057800000D000D000D01F921F92CDB7DEB79B870C
:105790008A871D821C821A8219821B821B821EC06C
:1057A0008A859B856B819DDF9F838E8319861886F2
:1057B0008E819F8161E070E00E949447998788877D
:1057C0002885398589819A818217930720F48885F5
:1057D00099859A8389838B818F5F8B838A859B854B
:1057E000FC0182819B819817D8F28A859B85AC0148
:1057F0004F5E5F4F8A859B85FC018281282F30E0B8
:10580000C901880F991F280F391F89819A81B90111
:105810000E94074C9D838C838C819D81892B39F05C
:105820008A859B852FEF3FEFFC01328B218B8C818A
:105830009D812B960FB6F894DEBF0FBECDBFDF91D2
:10584000CF910895CF93DF931F921F92CDB7DEB70C
:105850009A83898389819A81FC0181899289019641
:1058600039F089819A81FC01818992890E94A94D30
:1058700089819A812FEF3FEFFC01328B218B000051
:105880000F900F90DF91CF910895CF93DF93CDB715
:10589000DEB761970FB6F894DEBF0FBECDBF9D8710
:1058A0008C877F876E87598B488B1A8219822C854B
:1058B0003D858E859F85820F931F9C838B838B8173
:1058C0009C819E838D838D819E81FC018281938149
:1058D00098878F838D819E81FC01848189878D814A
:1058E0009E81FC0185818A871B868F8198854A85E8
:1058F0006985A2DD8B878B85882351F488899989F6
:1059000022E030E0FC01318320838EEF9FEF2BC03B
:105910008F8198852EDD982F81E0992309F080E012
:105920008B878B85882351F48889998922E030E020
:10593000FC013183208388EF9FEF15C08F8198850C
:105940009093CF028093CE0289858093D0028A857E
:105950008093D1028889998921E030E0FC0131836C
:10596000208389819A8161960FB6F894DEBF0FBEBD
:10597000CDBFDF91CF910895CF93DF93CDB7DEB741
:1059800063970FB6F894DEBF0FBECDBF9F878E879B
:10599000798B688B5B8B4A8B1A8219822E853F85A7
:1059A00088899989820F931F9C838B838B819C812B
:1059B0009E838D838091CE029091CF0298878F83B2
:1059C0008091D00289878091D1028A871C861B86AC
:1059D0001D868F8198854A8569852EDD8D878D8509
:1059E000882351F48A899B8922E030E0FC013183CD
:1059F00020838AEF9FEF9AC08F819885BADC982F19
:105A000081E0992309F080E08D878D85882351F40A
:105A10008A899B8922E030E0FC013183208388EF72
:105A20009FEF84C08D819E81FC0184819581A68138
:105A3000B7812D813E81F90162812D813E81F9017D
:105A400071819C01AD01872F8CDD8D878D85882329
:105A500051F48A899B8922E030E0FC013183208364
:105A60008EEF9FEF63C02091B8053091B9054F814B
:105A7000588563E1649FC001659F900D1124820FDA
:105A8000931FFC01208131818985482F50E06DE012
:105A9000649FC001659F900D1124820F931FFC012C
:105AA000408151818A85282F30E0C901880F991FD4
:105AB000880F991F880F991F821B930B840F951FC6
:105AC0009C878B878D819E81FC0121818B859C85A4
:105AD000FC0120838D819E81FC0122818B859C8528
